import { TransactionInput } from '../types/transaction-input.type';
import { TransactionOutput } from '../types/transaction-output.type';

export const utxo = {
  txid: '6cb98217240bd18eb7906f1abade4cc43f3428505c0546508dae6f100157c259',
  hash: 'f77efe191a5cdc0ee1db46de5f3fa5f633c554c4e300947be7a32ed6348e2096',
  vout: 0,
  address: 'mx5UhLwvd6GspYBin23syP2pWa828FpEBf',
  scriptPubKey: 'b5a8b3861eb44bdda58eca1956e1ff7e30493820',
  hex: '01000000000101940321f376dc53520d3ac161f9e86d31fe44d6494be2ab7c078ccb409246f9780200000000f0ffffff0340420f00000000001976a914b5a8b3861eb44bdda58eca1956e1ff7e3049382088ac56198200000000001600147f3c1765738d6d3164d32911b19d9622c8b2147b0000000000000000196a1768747470733a2f2f746c74632e6269746170732e636f6d02473044022032b7a09528ca4154e3a7b89eeb91498bf4f63282d105460016b8b10eba7ba00802200902af394bf9db764446be3fd1dfe2e364f81011582b5a403f954fc4c9e2606301210276a5c108f3ed60ef0a84848b45c94d8b7053b35b397a32e01eb4a1a5587a725f00000000',
  amount: 1000000,
};

export const account1 = {
  'privateKey': 'cU7UcoaDHKNXqQqojz2GkBm2feZK215h33T28ZAaKyENzaunzcpK',
  'address': 'mx5UhLwvd6GspYBin23syP2pWa828FpEBf',
};

export const account2 = {
  'seed': 'b95da21a1d689c6eeedbf0e8ece22fe79928aa0d39a9e3864ce333445f2ea8b622550173de47628b893cb4337b94bb0d12cfcb5ad0c72e4576eb5b00e6363fac',
  'seedPhrase': 'more veteran reward marble about label click decline fiscal human grocery coin board ladder quarter double scrap book humble wine improve song initial champion',
  'masterPublicKey': 'tpubD6NzVbkrYhZ4Xw9FzJZ78HwcnRUkzYBU1XUEVxFgMZjDffE9frnJR7gdfDXap1cBAzduFG2eSETaV4WSjbQm4Ws8omTP8ZL9SzRvnod2GEP',
  'masterPrivateKey': 'tprv8ZgxMBicQKsPeU7U6etWitHWDPxpqCzZSDsTDSDNwHvpqAyP3TxiEd4mV7z1oQCZbTRQq25EtvYrq1QkkBey9S1JCYM7h6VMfiwihXehMSF',
  'masterAccountPublicKey': 'tpubDDHBqpKCyuPENRXMzNyGSZTx9egYr2rnRUNXErM99CfjJT2vKdNwevydBHuCCME5uxxdM7gynqrc9Nne7y6ZYSZqjWua4T3A2ZCTUwcXqse',
  'masterAccountPrivateKey': 'tprv8gb9hQGxqXhZUxVa6jJg39oqadAcghfsrAmjxLJqivsLTxn9hEZMUSMm1AaYUKBDyLr9yTEZ322D21G7K8fPkNjfJ5T4ZWApHchYZqG5FjV',
  'publicKey': '02ff4a4d446af9b049caea7eebc6fb81caefcafea131860d8310297e43ba5fc31b',
  'privateKey': 'cUZ4Ehxx6fUKaSsiH9H2f7vQYKrampgkFiJU5ZUWAkUHSafc6eEi',
  'address': 'mzbqsVFuEd8jzaJtVp5aNp9hxa8WbL6Rud',
};

export const account3 = {
  'seed': '60fc8edd64ed1fc8591ec3235b06a78e5a6689c80c6d41b07d2d22d8006fcac6290e8c1c9d78d083118f8f1aa77aab6babb52d8fb8a1370a0895baad43c3c4be',
  'seedPhrase': 'camp misery appear coyote float social mutual local approve trade air true spot cat gap crime sadness trap blouse club alert picture cement grab',
  'masterPublicKey': 'tpubD6NzVbkrYhZ4WRTo69PAbrCsV2j4xvCfvJdRdmjAXXW6mZDMTSuFmDRigSX3eskEQs64AhTJPoYubCNb182XG1bLzWRtYRzznV1VjP2afgL',
  'masterPrivateKey': 'tprv8ZgxMBicQKsPcxS1CViaCSYkv1D8ob1mM12eMFgs7Fhhw4xaq45faiorWKD3T7j9YHCXYBci8z8SPQQCCgSircnpgJ6LjYdXqXGvSuJE11L',
  'masterAccountPublicKey': 'tpubDDP6jXZqJGFupHQxe47jUvtkSoZUbkFgHT6u59gTvhtob5gzxFHgmUrP4VAZ2AMEhAsPL5pyztjhBxhq3sQvumHH8CNBZzatdunQxtKCd2p',
  'masterAccountPrivateKey': 'tprv8gh4b7Xb9taEvpPAkQT95XEdsn3YSR4mi9W7ndeAWS6QkbSEKrU6azEWtN6k7zEwhyAyEU78PCUWjv6puPWSD5Cmiu2UD45jH21DJLA2Axn',
  'publicKey': '02f6c0fae378df08bfee0a880825e342a31a9ecf24e276dd2745a0887778f23669',
  'privateKey': 'cPqnXaiSNQbX4iVHjjsGsFstUuL1Ety2J3hPxjbP7XEQzeYAmpq4',
  'address': 'mpHtcxoy4RekVtV9ZnV3uzkuHeA7p4nYws',
};

export const account4 = {
  'seed': '528642c12cf5c36b7a3d3784b138b080a7f5bd82324d583b02d5840c716c476c4a047156b46b466d4e0c1dd6bb184d771746638717330b416072cd02b6969c25',
  'seedPhrase': 'damage supply age other husband rough birth crouch hand similar west february size royal annual candy often glue like ramp device board network eye',
  'masterPublicKey': 'tpubD6NzVbkrYhZ4YZWJki3pXpLUTf7ymAc2HBSmRX8Esur59K4ay5jc8eEZd2ndR9t8Qnab4UM62FdCTP12V461cY4AV6nw5hyiVsw6UhhAJYx',
  'masterPrivateKey': 'tprv8ZgxMBicQKsPf6UWs4PE8QgMtdc3bqR7hsqz915wTe3gJpopLgv1x9chSsR5SeApSrMMEkTUq33EVWiyE16fczYbq3uWx6U3MUoJp1FFECF',
  'masterAccountPublicKey': 'tpubDDCyjDWLmpHaVSsUUSbXhquuvg16xaRA4BZTvYkoyBfefkGxTQdfctpqjN7S37NCra2E8CJw1y7fHw5ddVkRG5NFqWR3qj9nnuN9REgqD1r',
  'masterAccountPrivateKey': 'tprv8gWwaoU6dSbubyqganvwJSFoMeVAoFEFUsxge2iWYusFqG2Bq1p5SQCyZE5KQcT8RMt34s3f8WqKqPXbGtRPadd1yKktpZZuymUPrnDtAL8',
  'publicKey': '03c2db510dacb537e56cd9364bba093630ab1503040a368719f2ed8e4d062ee358',
  'privateKey': 'cTT4mMUABETAkE3ptzuwexCeUP41VU8KoZCVmBX9D8R9oB8hNpPE',
  'address': 'mirvZAXjyn6Ezva3UybA97G3XG6Tv4brqc',
  'publicKey2': '02fe21ad3db70c2e58471cf54fda172259cc0a970dd16276b6499b1383a725d770',
  'privateKey2': 'cVQ6NsjjRYSPvnYwmMXxAuUa3B7xwpSnQSU8YSu9B99hg7SrepZ6',
  'address2': 'mqdGFzXHixreCSmicjpcV2RBX5TamMM3zL',
  'publicKey3': '03450cc14421e64896fc7f96320083d1a50b66b1ec9a75ed2b533338dc7ea8d0ce',
  'privateKey3': 'cUnTHCW9ANikp5t1eXF6a39qUQb4ombmLXqiDHUTfk2JCHHXtot2',
  'address3': 'n1a4xHRCNYGQhQDA19j83xdXSsM83oFrkx',
};

export const inputs1: TransactionInput[] = [
  {
    txId: '58d0e28866f917c2970e96796b40fce0aafef6bb3eef368b93ffc6f8cd3c0a7f',
    hex: '01000000000101bdc296e76317e48e303ee5fb5da2796c3c49a77dc7b6ddce7f2fb2c6aac807e10100000000f0ffffff0340420f00000000001976a914dbf95284089cdc64d92a1f6ef3ef50a0b396e15988ac2c21410000000000160014da0c0081b9da1207e689097aabbe5e84beae3d500000000000000000196a1768747470733a2f2f746c74632e6269746170732e636f6d0247304402205a669b4f0c56f601aa35fc54ce6a0b341707eaa2a9c24c99e0f26395500148d702201f42baed0582a750c463d2997463f63ccfbb1a389e6bb2c3a8c8e4e9e6b68d840121021afc6ed5a6a86f57bad9473d75babf4bd84103754049fcc5e84f03ea982b232400000000',
    n: 0,
    value: 1000000,
    address: 'n1a4xHRCNYGQhQDA19j83xdXSsM83oFrkx',
    scriptPubKeyHex: 'OP_DUP OP_HASH160 dbf95284089cdc64d92a1f6ef3ef50a0b396e159 OP_EQUALVERIFY OP_CHECKSIG',
    type: 'pubkeyhash',
  },
  {
    txId: '92416cb956eb2b811081e9d696eb4fa771b3dc02a29a883f0c8293cbeedfda9d',
    hex: '01000000000101697d090caf451b7fe7eacf610449a2779f4cd603bb9df3af0f61f87e409330550100000000f0ffffff0360ae0a00000000001976a914dbf95284089cdc64d92a1f6ef3ef50a0b396e15988ac8f7c040000000000160014ae9cbd21b4b5d226402eff2a743179cab5ef42ed0000000000000000196a1768747470733a2f2f746c74632e6269746170732e636f6d02473044022014b4b82826c761a41eeb47865c33d2fa6309394f485c1cd6e22490430ac6dbd50220108a3efd1b2086a02dd291575fb256243802d243b0335689553a8f503dc66aee01210243c9eb5c4b5b649d03ebc57a5ce1796e87a9a1fbbf24bca3d346525af7173d0800000000',
    n: 0,
    value: 700000,
    scriptPubKeyHex: 'OP_DUP OP_HASH160 dbf95284089cdc64d92a1f6ef3ef50a0b396e159 OP_EQUALVERIFY OP_CHECKSIG',
    address: 'n1a4xHRCNYGQhQDA19j83xdXSsM83oFrkx',
    type: 'pubkeyhash',
  },
  {
    txId: 'd72fbf004d558f5b1cceffd959988322b949044741b1fff0192b28e7375bb40e',
    hex: '01000000000101cda860b22317525c9af869a58ef41a0256debdc8ce93348f32e2fbe2a0f650990100000000f0ffffff03a0860100000000001976a914dbf95284089cdc64d92a1f6ef3ef50a0b396e15988ac91a20d0000000000160014a47693d6cc444c35ea2369098a00a7858f6ba3ca0000000000000000196a1768747470733a2f2f746c74632e6269746170732e636f6d02473044022079f6055a5f7250ddb225915a5e9c75c6ed45ed334c8f1a4b62d8356ef8a632e70220431e6dcff9d30eef1af8329dc9cd610594f538244cfbf7e4c82781287bf1254a0121028a52d91ff233a5eb9f91bd1e7bbdf085eb5ab27b3a182da5a301e129aa8015a400000000',
    n: 0,
    value: 100000,
    scriptPubKeyHex: 'OP_DUP OP_HASH160 dbf95284089cdc64d92a1f6ef3ef50a0b396e159 OP_EQUALVERIFY OP_CHECKSIG',
    address: 'n1a4xHRCNYGQhQDA19j83xdXSsM83oFrkx',
    type: 'pubkeyhash',
  },
];

export const outputs1: TransactionOutput[] = [
  {
    address: 'mx5UhLwvd6GspYBin23syP2pWa828FpEBf',
    amount: 800000,
  },
  {
    address: 'mzbqsVFuEd8jzaJtVp5aNp9hxa8WbL6Rud',
    amount: 800000,
  },
  {
    address: 'n1a4xHRCNYGQhQDA19j83xdXSsM83oFrkx',
    amount: 180000,
  },
];